{
  "_format": "hh-sol-artifact-1",
  "contractName": "ConditionalRegistry",
  "sourceName": "contracts/ConditionalRegistry.sol",
  "abi": [
    {
      "inputs": [
        {
          "internalType": "string",
          "name": "ipfsHash",
          "type": "string"
        }
      ],
      "name": "deleteEntry",
      "outputs": [],
      "stateMutability": "nonpayable",
      "type": "function"
    },
    {
      "inputs": [
        {
          "internalType": "string",
          "name": "",
          "type": "string"
        }
      ],
      "name": "entries",
      "outputs": [
        {
          "internalType": "address",
          "name": "owner",
          "type": "address"
        },
        {
          "internalType": "uint256",
          "name": "expiry",
          "type": "uint256"
        }
      ],
      "stateMutability": "view",
      "type": "function"
    },
    {
      "inputs": [
        {
          "internalType": "string",
          "name": "ipfsHash",
          "type": "string"
        }
      ],
      "name": "getEntry",
      "outputs": [
        {
          "internalType": "address",
          "name": "",
          "type": "address"
        },
        {
          "internalType": "uint256",
          "name": "",
          "type": "uint256"
        }
      ],
      "stateMutability": "view",
      "type": "function"
    },
    {
      "inputs": [
        {
          "internalType": "string",
          "name": "ipfsHash",
          "type": "string"
        },
        {
          "internalType": "uint256",
          "name": "expiry",
          "type": "uint256"
        }
      ],
      "name": "register",
      "outputs": [],
      "stateMutability": "nonpayable",
      "type": "function"
    }
  ],
  "bytecode": "0x608060405234801561001057600080fd5b50610774806100206000396000f3fe608060405234801561001057600080fd5b506004361061004c5760003560e01c80631767454414610051578063b319c9e41461006d578063ea87152b1461009e578063f8756c01146100ba575b600080fd5b61006b600480360381019061006691906104e5565b6100eb565b005b610087600480360381019061008291906104e5565b6101ed565b604051610095929190610588565b60405180910390f35b6100b860048036038101906100b391906105dd565b610290565b005b6100d460048036038101906100cf91906104e5565b610331565b6040516100e2929190610588565b60405180910390f35b3373ffffffffffffffffffffffffffffffffffffffff1660008260405161011291906106aa565b908152602001604051809103902060000160009054906101000a900473ffffffffffffffffffffffffffffffffffffffff1673ffffffffffffffffffffffffffffffffffffffff161461019a576040517f08c379a00000000000000000000000000000000000000000000000000000000081526004016101919061071e565b60405180910390fd5b6000816040516101aa91906106aa565b9081526020016040518091039020600080820160006101000a81549073ffffffffffffffffffffffffffffffffffffffff02191690556001820160009055505050565b6000806000808460405161020191906106aa565b90815260200160405180910390206040518060400160405290816000820160009054906101000a900473ffffffffffffffffffffffffffffffffffffffff1673ffffffffffffffffffffffffffffffffffffffff1673ffffffffffffffffffffffffffffffffffffffff1681526020016001820154815250509050806000015181602001519250925050915091565b60405180604001604052803373ffffffffffffffffffffffffffffffffffffffff168152602001828152506000836040516102cb91906106aa565b908152602001604051809103902060008201518160000160006101000a81548173ffffffffffffffffffffffffffffffffffffffff021916908373ffffffffffffffffffffffffffffffffffffffff160217905550602082015181600101559050505050565b6000818051602081018201805184825260208301602085012081835280955050505050506000915090508060000160009054906101000a900473ffffffffffffffffffffffffffffffffffffffff16908060010154905082565b6000604051905090565b600080fd5b600080fd5b600080fd5b600080fd5b6000601f19601f8301169050919050565b7f4e487b7100000000000000000000000000000000000000000000000000000000600052604160045260246000fd5b6103f2826103a9565b810181811067ffffffffffffffff82111715610411576104106103ba565b5b80604052505050565b600061042461038b565b905061043082826103e9565b919050565b600067ffffffffffffffff8211156104505761044f6103ba565b5b610459826103a9565b9050602081019050919050565b82818337600083830152505050565b600061048861048384610435565b61041a565b9050828152602081018484840111156104a4576104a36103a4565b5b6104af848285610466565b509392505050565b600082601f8301126104cc576104cb61039f565b5b81356104dc848260208601610475565b91505092915050565b6000602082840312156104fb576104fa610395565b5b600082013567ffffffffffffffff8111156105195761051861039a565b5b610525848285016104b7565b91505092915050565b600073ffffffffffffffffffffffffffffffffffffffff82169050919050565b60006105598261052e565b9050919050565b6105698161054e565b82525050565b6000819050919050565b6105828161056f565b82525050565b600060408201905061059d6000830185610560565b6105aa6020830184610579565b9392505050565b6105ba8161056f565b81146105c557600080fd5b50565b6000813590506105d7816105b1565b92915050565b600080604083850312156105f4576105f3610395565b5b600083013567ffffffffffffffff8111156106125761061161039a565b5b61061e858286016104b7565b925050602061062f858286016105c8565b9150509250929050565b600081519050919050565b600081905092915050565b60005b8381101561066d578082015181840152602081019050610652565b60008484015250505050565b600061068482610639565b61068e8185610644565b935061069e81856020860161064f565b80840191505092915050565b60006106b68284610679565b915081905092915050565b600082825260208201905092915050565b7f4e6f74206f776e65720000000000000000000000000000000000000000000000600082015250565b60006107086009836106c1565b9150610713826106d2565b602082019050919050565b60006020820190508181036000830152610737816106fb565b905091905056fea264697066735822122081c11da86f31c8ba40df01acfae9aeaee4eb1e9f62cda74b94e3200171b1b6cc64736f6c63430008130033",
  "linkReferences": {},
  "deployedLinkReferences": {}
}